:020000040800F2
:10000000801200209D010008BB2100084320000849
:10001000B9210008990200085533000800000000CB
:100020000000000000000000000000009D25000806
:1000300019030008000000009B2500082126000885
:10004000B7010008B7010008B7010008B7010008B0
:10005000B7010008B7010008B7010008B7010008A0
:10006000B7010008B7010008B7010008B701000890
:10007000B7010008B7010008B7010008B701000880
:10008000B7010008B7010008B7010008B701000870
:1000900049330008B7010008B7010008B70100089C
:1000A000B7010008B7010008B7010008B701000850
:1000B000F1260008B7010008B7010008B7010008E1
:1000C000B7010008B7010008B7010008B701000830
:1000D000B7010008B7010008B7010008B701000820
:1000E000B7010008B7010008B7010008B701000810
:1000F000B7010008B7010008B7010008B701000800
:10010000000000000000000000000000B70100082F
:10011000B7010008B7010008B7010008B7010008DF
:10012000B7010008B7010008B7010008B7010008CF
:10013000B7010008B701000800000000000000003F
:10014000B7010008B7010008B7010008000000006F
:10015000000000000000000000000000000000009F
:100160000000000000000000B7010008B70100080F
:10017000B7010008000000000000000000000000BF
:1001800000000000B7010008DFF80CD000F03AF8DA
:100190000048004775330008801200200648804759
:1001A00006480047FEE7FEE7FEE7FEE7FEE7FEE75C
:1001B000FEE7FEE7FEE7FEE7892600088901000862
:1001C000202A04DB203A21FA02F00021704721FAAC
:1001D00002F3D040C2F12002914008431946704713
:1001E000D2B201E000F8012B491EFBD27047002279
:1001F000F6E710B513460A4604461946FFF7F0FF26
:10020000204610BD064C074D06E0E06840F00103B3
:1002100094E8070098471034AC42F6D3FFF7B8FFD4
:10022000D4340008F434000870B58C1810F8015B61
:1002300015F0070301D110F8013B2A1106D110F87F
:10024000012B03E010F8016B01F8016B5B1EF9D183
:100250002B0705D40023521E0DD401F8013BFAE709
:1002600010F8013BCB1A921C03E013F8015B01F874
:10027000015B521EF9D5A142D8D3002070BD000009
:100280000349D1E9002082F30888024A116000473F
:1002900000A0000808ED00E0FEE700207047002005
:1002A0007047000030B515481549D0F818220020D5
:1002B000135C0B54401CC0B24028F9D308780122CB
:1002C000012804D00A280BD0CA2805D113E04878A9
:1002D000EF2803D00B480270002030BD0A48FAE72F
:1002E0000A4B01201D180C5C401C05F8014C21280C
:1002F000F8DB0748EFE70748EDE700007804002047
:10030000380400200000002001000020D801002057
:100310000300002004000020704710B5002400F006
:1003200045FA012800D10124204610BD7047000085
:10033000F8B5114D114800241149AC71C0E90041D4
:100340006C2181606946009400F0BAF801004FF01A
:10035000904009D00646AC710821304600F02BFAD7
:10036000962000F09BF8F6E70121A9710A460821C2
:1003700000F025FAF8BD0000000000208C010020EC
:1003800000A0000806490020C8610648016941F044
:1003900004010161016941F0400101617047000001
:1003A000600E002000200240064A0021D16106496B
:1003B0000A6942F002020A614861086940F040009F
:1003C00008617047600E002000200240044B0022AC
:1003D000DA61044A136943F0010313610180704735
:1003E000600E0020002002400A490020CA68D3069F
:1003F000094A04D5D06940F00200D0611020CB68D2
:100400005B0705D5D36943F00103D36140F00400D5
:10041000C860704700200240600E002070B505469D
:1004200000F0D2F90646104C09E0681C07D025B14F
:1004300000F0CAF9801BA84201D9032070BDE06812
:10044000C007F2D1E068800601D52020E060E068B6
:10045000C00602D4E068400703D5FFF7C5FF0120BE
:1004600070BD002070BD0000002002402DE9F04169
:10047000094D064600244FF400773259002302202C
:10048000296800F07BF810B92868001D2860241D39
:10049000BC42F2D3BDE8F081F000002070B5044604
:1004A00000F092F90546601C02D00448007804442C
:1004B00000F08AF9401BA042FAD370BDFC00002076
:1004C0002DE9F047054626480F460126017E012901
:1004D0000FD00121814601762868DFF888804CF230
:1004E0005034012808D0A2462046FFF797FFA0B15C
:1004F00030E00220BDE8F0872046FFF78FFF00BB09
:10050000FFF740FF2046FFF789FFD8F81010064696
:1005100021F00401C8F810101CE04FF0FF303860E3
:100520006C6811E02046FFF73FFF5046FFF776FF6B
:10053000D8F81010060021F00201C8F8101001D000
:100540003C6007E004F50064D5E9010100EBC1203F
:10055000A042E7D8002189F818103046CAE7000009
:10056000600E0020002002400348016941F0800134
:100570000161002070470000002002402DE9F05F7B
:1005800007461C4888460024017E15461E46012960
:1005900009D00121814601764CF2503A5046FFF7CE
:1005A0003DFF18B122E00220BDE8F09F012F02D0EC
:1005B000022F00D00427D346DFF83CA022012846B2
:1005C0003146FFF7FDFD81B208EB4400FFF7FEFE68
:1005D0005846FFF723FFDAF8102022F00102CAF88C
:1005E000102018B9641CE4B2BC42E7D3002289F899
:1005F0001820D9E7600E00200020024006490020A4
:100600000A69120607D5054A4A60054A4A6009691F
:10061000090600D5012070470020024023016745EC
:10062000AB89EFCD2DE9F84FDFF864B100234FF02F
:10063000010C4FF0030A4FF00F090BF1040EA0E07C
:100640000CFA03F6324072D04C68022C01D0122C06
:100650000ED1DC0800EB8408D8F820405D07EF0ECF
:1006600009FA07F5AC430D69BD402543C8F8205091
:1006700007685D0091F804800AFA05F408F00308A1
:10068000A74308FA05F848EA0708C0F800804F6851
:10069000012F05D0022F03D0112F01D0122F11D11D
:1006A0008768D1F80C80A74308FA05F848EA0708DC
:1006B000C0F808804768B7430E79C6F300169E401D
:1006C0003E434660C668A6438C68AC403443C46071
:1006D0004C68E40054D52F4CA56945F00105A5618F
:1006E000A46923F0030504F0010400942A4C2E1998
:1006F000B4689D072F0F09FA07F5AC43B0F1904F8E
:1007000004D0264DA84203D1012512E0002510E0B7
:10071000234DA84201D102250BE0224DA84201D170
:10072000032506E0204DA84202D1042501E027E080
:100730000525BD402543B560DBF800405D464E68A9
:100740009443F60300D514432C60DEF80040754650
:100750004E689443B60300D514432C600C4D083505
:100760002C684E689443F60200D514432C60084D63
:100770000C352C684E689443B60200D514432C60A7
:100780005B1C0A6832FA03F47FF45AAFBDE8F88FB5
:100790000004014000100240000001400004004835
:1007A00000080048000C004800100048006908409C
:1007B00000D00120704742694A40426170470AB147
:1007C000816170478162704701488068704700000E
:1007D000FC00002002488168027811448160704763
:1007E000FC000020074810B5016841F010010160CD
:1007F000032000F06BF8002000F006F800F024F869
:10080000002010BD0020024070B50D4D04464FF48D
:100810007A712878B1FBF0F00A490968B1FBF0F071
:1008200001F02CFA48B9102C07D200222146501EA4
:1008300000F02CF800206C6070BD012070BD00003D
:10084000FC00002008010020094808B5816941F03A
:1008500001018161816901F001010091C16941F0EB
:100860008051C161C06900F08050009008BD000057
:100870000010024000F01F02012191404009800059
:1008800000F1E020C0F8001170470000F0B40E4BFA
:100890001B680C46C3F30223C3F10705042D00D9DE
:1008A0000425191D072901D2002300E0DB1E0126C3
:1008B00006FA05F1491E214099409E40761E1640D9
:1008C0003143F0BC01F07ABC0CED00E0064900F0C9
:1008D000070208684FF6FF03184040EA0220034A67
:1008E00010430860704700000CED00E00000FA05BE
:1008F00010B50C0607D501F07F01C1EBC10100EB7B
:100900008100283005E0C1EBC10100EB810000F55A
:10091000E67099B232B101228272C180190C018154
:10092000002010BD002282728180F9E77047C1EB80
:10093000C10200EB8202D0F8A403926B02F022BA4B
:10094000C1EBC10200EB8202D0F8A403D2F8DC2193
:1009500002F06DBA2DE9F04301F07F03C3EBC3024F
:100960000C0600EB820201D5283201E002F5E672A6
:10097000C9091370517090F87013012946D00121F4
:1009800080F87013977A48F6BF76002F577848F2B0
:1009900080034BF68F7948F2C0044CF2800548F68C
:1009A0008F7136D08FB31778D0F800C03CF827800D
:1009B0005FEA484807D53CF8278008EA010848EA7A
:1009C00005082CF827801778D0F800C03CF827805D
:1009D0005FEA486807D53CF8278008EA010848EA3A
:1009E00004082CF8278092F800C0076837F82C40DC
:1009F0000C402C4327F82C401478056835F8241057
:100A00003140194325F8241025E032E00220BDE8EA
:100A1000F083A7B11778056835F827C05FEA4C6CFA
:100A200007D535F827C00CEA010C4CEA040C25F870
:100A300027C01278046834F82210314011E016788B
:100A4000046834F826707F0405D534F826700F400A
:100A50002F4324F826701278046834F8221001EA33
:100A60000901194324F82210002180F87013084668
:100A7000CDE792F800C0076837F82C805FEA484855
:100A800007D537F82C8008EA010848EA050827F856
:100A90002C801778056835F827C05FEA4C6C07D5BD
:100AA00035F827C00CEA010C4CEA040C25F827C0E5
:100AB0001578D0F800C03CF825700F4027432CF87B
:100AC00025701578046834F8251001EA09011943E6
:100AD00024F82510ADE7F0B50A0601F07F0305D52F
:100AE000C3EBC30200EB8202283205E0C1EBC10276
:100AF00000EB820202F5E672002494701370C909BB
:100B0000517090F87013012921D0012180F87013E1
:100B1000517803680029117848F68F7648F28005ED
:100B200033F8217015D07F0607D533F82170374090
:100B300048F2C006374323F821701278036833F86F
:100B4000221048F6BF76314081F0300114E00220D7
:100B5000F0BD7F0407D533F8217037404CF2800692
:100B6000374323F821701278036833F822104BF6CC
:100B70008F76314081F44051294323F8221080F8C8
:100B800070430020F0BD2DE9F04F01F07F05C5EB6B
:100B9000C5040E0600EB840401D5283401E004F5F9
:100BA000E674C90925706170E260E37090F8701313
:100BB00001290DD0012180F87013E27848F68F11D9
:100BC0004AB1012A21D0022A0DD0032A26D112E0EF
:100BD0000220BDE8F08F2278036833F822500D40E0
:100BE00045F4007118E02278036833F822500D4074
:100BF00023F8225012E02378026832F823500D4087
:100C000045F4C06122F8231008E02278036833F825
:100C100022500D4045F4806123F8221023780668A5
:100C200036F8235048F68F710D4048F28002154384
:100C30001D4326F82350A77A4FF4806348F6BF7906
:100C40004BF68F7A48F2C0054CF28006EFB3D0F82D
:100C500000802778C34638F827C048F280180CEA8D
:100C6000010C4CEA080C2BF827C0E78827F0010C90
:100C70000768BB46B7F8507094F800809E4607EBB3
:100C8000C80703EB47032BF803C0238923F00107B0
:100C900003689B46B3F850C094F80080042303EB2C
:100CA000C8039C440EEB4C0C2BF80C70637807685F
:100CB000002B237837F823C04FEA4C4C7DD0BCF191
:100CC000000F09DA37F823C000E033E00CEA010C2A
:100CD0004CEA060C27F823C02378076837F823C0AE
:100CE0005FEA4C6C07D537F823C00CEA010C4CEADC
:100CF000050C27F823C02578076837F825300B4006
:100D0000334327F825302378056835F8231001EAA6
:100D10000901114325F823102378056835F82310BD
:100D200001EA0A01114325F82310002180F870130D
:100D300008464EE767780FB3A68826F001070668D5
:100D4000B6F850C094F800800CEBC80C03EB4C03D1
:100D5000F7522678036833F826707F0605D533F8F6
:100D600026700F402F4323F826702478036833F849
:100D7000241001EA090181F020017DE0A58825F019
:100D800001070568A946B5F850C094F8008004250D
:100D900005EBC805654403EB450C29F80C700568A4
:100DA000B5F8507094F800C04FF0060808EBCC0C72
:100DB000674403EB47035F1900E02DE0E3684FF65B
:100DC000FF7C3E2B0AD9C3F34F15DB0601D16D1E04
:100DD000ADB20CEA852343F4004307E0C3F34F05AB
:100DE000DB0701D06D1CADB20CEA85233B80237874
:100DF000056835F823707F0405D535F823700F405A
:100E0000374325F823702478036833F8241001EA67
:100E10000A0181F440512FE0BCF1000F07DA37F8E6
:100E200023C00CEA010C4CEA060C27F823C02378F7
:100E3000066836F823707F0605D536F823700F4014
:100E40002F4326F823702378066836F823700F4066
:100E50002F4326F823702378056835F8231001EA1C
:100E60000A0181F44051114325F8231024780368C6
:100E700033F8241001EA0901114323F8241054E740
:100E8000F0B501F07F05C5EBC50400EB84041E46F8
:100E9000C4E977230022C4F8E42184F8CD2184F842
:100EA000CC51D4F8D85104F5E674AB4201D92B46A5
:100EB000F21A62610668062201F07F0102EBC101AD
:100EC000B6F850704FF480654FF6FF72394405EB69
:100ED00041018D193E2B1FD9C3F34F11DB0618D0EA
:100EE00002EA812141F4004102E000BF02EA8121CF
:100EF00029802278016831F822004BF68F73184060
:100F000080F4405048F28003184321F8220000206A
:100F1000F0BD491E89B2E3E7C3F34F01DB07E5D01B
:100F2000491C89B2E2E730B590F87023012A0CD051
:100F3000012480F870430B0601F07F0207D5C2EB55
:100F4000C20300EB8303283307E0022030BDC1EB6E
:100F5000C10300EB830303F5E673C9099C701A70A3
:100F6000597048F2800352B10468002934F8221005
:100F700011D048F6BF75294081F0100110E00268D9
:100F800011884BF6BF74214081F4805181F010012B
:100F90001943118007E04BF68F75294081F4805189
:100FA000194324F82210002180F87013084630BD40
:100FB00070B5064601F07F00C0EBC00106EB81046E
:100FC0000121C4E90E230022226484F8291004F8C8
:100FD000280F1D46E068834203D90546181A606150
:100FE00000E06261A07A38B12178306830F82110D1
:100FF000490614D5228913E0ABB2A2882169306872
:1010000001F0B8FA3068B0F850102278022303EBF0
:10101000C20211445A0202EB4101455220E0E2882B
:10102000ABB2216901F0A6FA617848F68F7011B170
:1010300001290BD014E02178336833F821200240D5
:1010400048F2C000024323F8212009E021783268E9
:1010500032F8213003404CF28000034322F8213063
:101060002278316831F8220048F6BF73184080F0CA
:10107000300048F28003184321F82200002070BDA0
:1010800010B504460068B0F84400000402D52046BC
:1010900001F0A4F82068B0F8441049050AD54FF6CD
:1010A000FF31A0F84410204600F0F0F8002120465F
:1010B00000F007F92068B0F84410490403D54BF656
:1010C000FF71A0F844102068B0F84410890403D5DB
:1010D0004DF6FF71A0F844102068B0F84410C90420
:1010E00012D530F8401F21F004010180206830F84B
:1010F000401F21F008010180204600F0DAF8216845
:101100004EF6FF70A1F844002068B0F844100905BD
:1011100018D530F8401F41F00801018021684FF2D6
:10112000FF70A1F84400206830F8401F41F004012E
:1011300001802068B0F84400C043C00402D52046B6
:1011400000F0E2F82068B0F84410890506D54FF6A3
:10115000FF51A0F84410204600F0AFF82068B0F826
:101160004410C90503D54FF6FF61A0F8441010BD27
:1011700070B504004FF0000604D094F87103002508
:1011800010B106E0012070BD84F87053204600F0D5
:1011900043F8032084F8710301220CE0C6EBC6007B
:1011A00004EB800080F8292000F8286F761CC570B9
:1011B000C560056145616068B042EFD8002010E06D
:1011C000C0EBC00104EB810181F8CD5181F8CC0165
:1011D00081F8CF51C1F8D851C1F8DC51401CC1F899
:1011E000E05161688142EBD82068A0F84020206877
:1011F000A0F840502068A0F844502068A0F8505053
:1012000021684FF43F40A1F8400084F8245084F84E
:101210007123002070BD000010B586B00446142173
:101220006846FEF7E4FF17492068884228D1164C2B
:10123000606940F4003060616069694600F4003024
:1012400005904FF4C05000900220019000200290C1
:10125000032003900E2004904FF09040FFF7E2F936
:10126000E06940F40000E061E069002200F4000061
:10127000059011461420FFF709FB1420FFF7FAFA36
:1012800006B010BD005C00400010024070B504467E
:1012900080680125022801D0FFF748F82946D4F8D4
:1012A000A40301F087FED4F8A403BDE8704001F068
:1012B00050BED0F8A40301F06BBED0F8A40301F037
:1012C0006DBE90F87023012A0AD0012280F87023A5
:1012D00041B180F82410002180F87013084670474F
:1012E0000220704702688021A2F84C10F3E7D0F882
:1012F000A42300F55D71104601F068BE10B5012110
:10130000FFF714FB002010BD10B50446D0F8A4036D
:1013100001F09BFEA069002804D00348016841F059
:101320000601016010BD000010ED00E02DE9F84F4E
:1013300004460068804DC0036FD5E8690026C000F0
:1013400008D4E86940F08050E861E869012600F0BF
:101350008050009079480168C90512D40168804620
:1013600041F480710160FFF72FFA074605E000BFE6
:10137000FFF72AFAC01B642835D8D8F80000C0054A
:10138000F6D5286A10F4407053D0A18801F440715A
:1013900081424ED0286A4FF4803191FAA1F2B2FA1C
:1013A00082F29700664A4FF00108174420F440701B
:1013B000C7F8008491FAA1F1B1FA81F102EB810141
:1013C0000023C1F800342862C00732D0FFF7FCF9CF
:1013D000074641F2883A4FF0020907E0FFF7F4F9B7
:1013E000C11B514502D90320BDE8F88F99FAA9F134
:1013F000B1FA81F141F040014846B8EB511F01D1EB
:1014000029680CE090FAA0F1B1FA81F141F04001B5
:10141000B0EB511F02D1296A01E015E0696A99FA1F
:10142000A9F0B0FA80F000F01F0008FA00F21142B3
:10143000D4D0286A616820F44070084328621EB145
:10144000E86920F08050E8612078C00705D0286B5B
:10145000A16820F00300084328632078800705D5A1
:10146000286BE16820F44030084328632078400767
:1014700005D5286B216920F4402008432863207893
:10148000800605D5286BE16920F010000843286329
:101490002068800305D56868A16B20F480000843AC
:1014A00068602078400605D5286B216A20F020006E
:1014B000084328632078000705D5286B616920F46C
:1014C0004010084328632078C00605D5286BA16921
:1014D00020F44000084328632088800505D568680B
:1014E000E16A20F40000084368602078000605D512
:1014F000E86A616A20F4F8700843E8622088C00551
:1015000005D5E86AA16A20F478500843E86220888B
:10151000C00405D5286B216B20F480700843286334
:101520002088800405D5286B616B20F40070084387
:101530002863002058E700000010024000700040BF
:10154000000042422DE9F0470F46050069D04A4E9F
:10155000306800F00700B84209D2306820F0070078
:1015600038433060306800F00700B84259D128781D
:10157000424C800705D56068A96820F0F000084358
:1015800060602878C0073DD06968012001290DD02E
:10159000022923D05FF0020393FAA3F2B2FA82F297
:1015A00042F02002520904D0226803E04FF40033D5
:1015B000F2E7626A93FAA3F3B3FA83F303F01F032B
:1015C000984002422DD0606820F00300084360601C
:1015D000FFF7FAF8804641F288390CE04FF00073CB
:1015E000DAE700BFFFF7F0F8A0EB0801494502D9A0
:1015F0000320BDE8F0876068696800F00C00B0EB7C
:10160000810FEFD1306800F00700B8420BD9306885
:1016100020F0070038433060306800F00700B8421F
:1016200001D00120E5E72878400705D56068E96822
:1016300020F4E060084360602878000706D5606801
:10164000296920F4605040EAC100606000F01CF895
:101650006168F02292FAA2F201F0F001B2FA82F28D
:10166000D140074A515CC840064908600020FFF796
:10167000CBF80020BDE7000000200240001002402F
:10168000C434000808010020144B10B55A681448EF
:1016900002F00C0104291DD008291BD14FF470144D
:1016A00094FAA4F402F47011B4FA84F4E1400D4CFD
:1016B000DB6A615C0F2494FAA4F403F00F03B4FA1C
:1016C00084F4E340074C1034D203E35C03D5B0FB51
:1016D000F3F0484310BD0448484310BD00100240D9
:1016E00000127A00A434000800093D002DE9F84FEB
:1016F000040071D02078FB4DC0074FF0010625D0C3
:1017000068687704C0F38100012807D06868C0F3D7
:10171000810002281BD16868C00318D597FAA7F08A
:10172000B0FA80F040F02000400901D0286800E0C5
:10173000686A97FAA7F1B1FA81F101F01F0106FA80
:1017400001F1084265D060680028D2D061E060688D
:10175000B0F5803F0BD010B1B0F5A02F17D028689E
:1017600020F480302860286820F4802002E0286877
:1017700040F480302860E86AA16820F00F00084338
:10178000E862606820B3FFF71FF880460AE0286827
:1017900040F480202860EAE7FFF716F8A0EB080085
:1017A000642872D897FAA7F0B0FA80F040F02000D1
:1017B000400901D0286800E0686A97FAA7F1B1FAF9
:1017C00081F101F01F0106FA01F10842E4D020E0A6
:1017D000FEF7FAFF804607E0C7E000BFFEF7F4FF20
:1017E000A0EB08006428DCD897FAA7F0B0FA80F0E4
:1017F00040F02000400901D0286800E0686A97FAAC
:10180000A7F1B1FA81F101F01F0106FA01F10842D6
:10181000E4D12078DFF8D08280074FF0000A4FF043
:10182000020759D568684FF0F80B10F00C0F07D07D
:101830006868C0F3810002281BD16868C00318D40F
:1018400097FAA7F0B0FA80F040F02000400901D0EC
:10185000286800E0686A97FAA7F1B1FA81F101F00F
:101860001F0106FA01F108422BD0206901287CD122
:1018700027E0206988B396FAA6F0B0FA80F048F81D
:101880002060FEF7A1FF814606E055E1FEF79CFFD0
:10189000A0EB0900022884D897FAA7F0B0FA80F0EC
:1018A00040F02000400901D0286800E0686A97FAFB
:1018B000A7F1B1FA81F101F01F0106FA01F1084226
:1018C000E4D028689BFAABF26169B2FA82F220F0A8
:1018D000F80091400843286025E0FFE796FAA6F15A
:1018E000B1FA81F148F821A0FEF76EFF814605E0CC
:1018F000FEF76AFFA0EB09000228CCD897FAA7F000
:10190000B0FA80F040F02000400901D0286800E0E3
:10191000686A97FAA7F1B1FA81F101F01F0106FA9E
:1019200001F10842E4D1207800076AD5A069A0B38C
:1019300096FAA6F0B0FA80F008EB8000C0F8806458
:10194000FEF742FF814605E0FEF73EFFA0EB0900EF
:101950000228A0D897FAA7F0B0FA80F040F0600013
:10196000B6EB501F02D128680CE077E197FAA7F098
:10197000B0FA80F040F06000B7EB501F01D1286A48
:1019800000E0686A97FAA7F1B1FA81F101F01F014E
:1019900006FA01F21042D7D033E0FFE796FAA6F03C
:1019A000B0FA80F008EB8000C0F880A4FEF70CFFCE
:1019B000814605E0FEF708FFA0EB090002289CD84D
:1019C00097FAA7F0B0FA80F040F06000B6EB501F35
:1019D00001D128680BE097FAA7F0B0FA80F040F048
:1019E0006000B7EB501F01D1286A00E0686A97FADF
:1019F000A7F1B1FA81F101F01F0106FA01F21042DC
:101A0000D8D12078400774D5E8694FF00009C000AC
:101A100009D4E86940F08050E861E8694FF00109B5
:101A200000F08050009031480168C90512D4016867
:101A300041F480710160FEF7C7FE834606E000BFF7
:101A4000FEF7C2FEA0EB0B00642875D8274800689B
:101A5000C005F5D5E06801280AD008B1052811D0E5
:101A6000286A20F001002862286A20F0040002E0C1
:101A7000286A40F001002862E068C8B3FEF7A4FEBF
:101A800083460DE0286A40F004002862F0E700BFBA
:101A9000FEF79AFEA0EB0B0141F2883081424BD851
:101AA00097FAA7F0B0FA80F040F04000B6EB501F74
:101AB00001D128680BE097FAA7F0B0FA80F040F067
:101AC0004000B7EB501F01D1286A00E0686A97FA1E
:101AD000A7F1B1FA81F101F01F0106FA01F21042FB
:101AE000D6D035E0001002400000424200700040B5
:101AF00000E034E0FEF768FE834607E0FEF764FE90
:101B0000A0EB0B0141F28830814215D897FAA7F07B
:101B1000B0FA80F040F04000B6EB501F01D12868C9
:101B20000CE097FAA7F0B0FA80F040F04000B7EB75
:101B3000501F02D1286A01E083E0686A97FAA7F192
:101B4000B1FA81F101F01F0106FA01F21042D5D17C
:101B5000B9F1000F03D0E86920F08050E861E06936
:101B600080B36968C1F38101022977D04FF0807199
:101B70004F00022809D091FAA1F0B0FA80F048F89D
:101B800020A0FEF721FE04465EE050468A4691FA08
:101B9000A1F1B1FA81F1C14648F82100FEF714FE27
:101BA000804605E0FEF710FEA0EB0800022848D8AA
:101BB00097FAA7F0B0FA80F040F02000400902D078
:101BC000286801E056E0686A97FAA7F1B1FA81F156
:101BD00001F01F0106FA01F10842E3D1D4E908102F
:101BE0000843696821F47411084368609AFAAAF0FE
:101BF000B0FA80F049F82060FEF7E6FD044604E004
:101C0000FEF7E2FD001B02281BD897FAA7F0B0FAF6
:101C100080F040F02000400901D0286800E0686AA8
:101C200097FAA7F1B1FA81F101F01F0106FA01F16B
:101C30000842E5D01EE000BFFEF7C6FD001B0228EB
:101C400002D90320BDE8F88F97FAA7F0B0FA80F028
:101C500040F02000400902D0286801E00CE0686AEA
:101C600097FAA7F1B1FA81F101F01F0106FA01F12B
:101C70000842E1D10020E5E70120E3E710B5401E6E
:101C8000B0F1807F01D3012010BD4FF0E0246061EE
:101C90000F21601700F092FA0020A0610720206158
:101CA000002010BD704770477047000030B590F8B5
:101CB0003C20012A1FD0012280F83C200268536892
:101CC00094680E4DAA4202D00D4DAA4203D123F4CE
:101CD00070054B682B4323F070050B6889682B4314
:101CE00024F080042143536002689160002180F851
:101CF0003C10084630BD022030BD0000002C0140E1
:101D00000034014010B5040003D094F83D0010B138
:101D100007E0012010BD002084F83C00204600F0C0
:101D20000DF8022084F83D00211D206800F00AFD16
:101D3000012084F83D00002010BD000008B50068B7
:101D4000B0F1804F12D10A48C16941F00101C1616F
:101D5000C069002200F00100009011461C20FEF72F
:101D600095FDBDE808401C20FEF784BD08BD0000BD
:101D7000001002400168CA6842F00102CA600068AF
:101D8000016841F001010160002070470168CA68E4
:101D900022F00102CA600068016A41F21112114288
:101DA00007D1016A9210114203D1016821F00101AB
:101DB000016000207047000070B5044690F83C00B8
:101DC000012817D0012584F83C50022084F83D00FA
:101DD00022689068364E304020F47F40906008685A
:101DE000502839D00DDC20285BD005DC98B31028B2
:101DF00043D153E0022070BD302855D040283CD15B
:101E000041E0602830D070280CD0B0F5805F03D05E
:101E1000B0F5005F31D112E020688168244A703249
:101E2000114016E0CB68D1E90121206800F0E2FC06
:101E300021688868304040F0770088601DE0CB68FA
:101E4000D1E90121206800F0D5FC2068816841F4C7
:101E50008041816011E01EE0CA684968206800F096
:101E6000DBFC5021206806E0CA684968206800F061
:101E7000E4FC6021206800F0C7FC84F83D5000209D
:101E800084F83C0070BDCA684968206800F0C4FC52
:101E900040212068EFE700212068ECE7102120684E
:101EA000E9E720212068E6E730212068E3E7000029
:101EB00088FFFEFF704770B50446006801694FF067
:101EC0000005C943890715D4C168C943890711D4DE
:101ED000E91E016101202077206880698007204683
:101EE00002D0FFF7E7FF04E000F0A7F8204600F07B
:101EF000A5F8257720680169C943490717D4C16847
:101F0000C943490713D46FF004010161022020770F
:101F10002068806910F4407F204602D0FFF7CAFF96
:101F200004E000F08AF8204600F088F82577206861
:101F30000169C943090716D4C168C943090712D406
:101F40006FF008010161042020772068C0698007D4
:101F5000204602D0FFF7AEFF04E000F06EF8204606
:101F600000F06CF8257720680169C943C90617D4C9
:101F7000C168C943C90613D46FF01001016108207C
:101F800020772068C06910F4407F204602D0FFF718
:101F900091FF04E000F051F8204600F04FF825775B
:101FA00020680169C943C90708D1C168C943C90785
:101FB00004D1891E0161204600F041F820680169C2
:101FC000C943090609D4C168C943090605D46FF09D
:101FD000800101612046FFF766FE20680169C94360
:101FE000C90509D4C168C943090605D46FF48071D5
:101FF00001612046FFF756FE20680169C943490682
:1020000009D4C168C943490605D46FF04001016194
:10201000204600F015F820680169C94389060BD4F1
:10202000C168C943890607D46FF0200101612046C9
:10203000BDE87040FFF738BE70BD7047704770470D
:102040007047FEE7F0B500230A24302537261F46E7
:1020500011E000BFB4EB107F02D905EB107C01E06A
:1020600006EB107C01F813C001EB430C00015B1C74
:102070008CF80170DBB29342ECD3F0BD30B587B081
:1020800014216846FEF7B3F81E48416941F4002167
:102090004161416901F400210591416941F48001E8
:1020A0004161416901F480010591416941F40031C8
:1020B0004161416901F400310591416941F4802198
:1020C000416140694FF0904500F480200590002266
:1020D00008212846FEF773FB00244FF48050CDE919
:1020E0000004694608480294FEF79CFA0820009014
:1020F0000120CDE90104694628460394FEF792FACF
:1021000007B030BD001002400004004810B588B090
:1021100000241348009401940294039404940594B9
:102120004FF080410694016040F2ED21C0E90114B6
:102130004FF6FF11C1604FF4007184610161FFF738
:10214000E1FD4FF48050009069460548FFF734FEEA
:10215000049404A902480694FFF7A8FD08B010BD36
:102160009801002010B500220F49104800F0E3FD4F
:1021700008B1FEF7DBF80E490C4800F08CFF08B1FF
:10218000FEF7D4F80B49094800F0E4FB08B1FEF76C
:10219000CDF8064800F0CCFF002803D0BDE8104081
:1021A000FEF7C4B810BD0000100000207804002025
:1021B00010010020DC000020FEE770470907090E2F
:1021C000002806DA00F00F0000F1E02080F8141D6E
:1021D000704700F1E02080F8001470472DE9FC5FA3
:1021E0004FF000080446ADF8008048F60F7B4FF032
:1021F00002094FF4806698E1BDF8041011F00F0752
:102200002FD030F82710ADF80010BDF800100904E9
:102210007CD530F8271040F68F72114020F8271037
:10222000C7EBC70004EB800595F8D60105F5E67508
:1022300000286CD02878D4F800C03CF82010BCF8F6
:10224000502049047ED509EBC000104406EB400045
:102250003CF80000C0F309005FEA000A73D0EA8886
:10226000D0E0BDF80410C9062AD4018801EA0B01A8
:102270000180206804F12805B0F850202B7809EB84
:10228000C301114406EB4101405AC0F30900206428
:10229000A16B0844A06300212046FEF748FB94F898
:1022A00024000028A7D068690028A4D194F824004D
:1022B000216840F08000A1F84C0084F8248034E1CB
:1022C000018804F5E675ADF80010BDF800100905A9
:1022D0001ED5B0F850202B78062101EBC301114424
:1022E00006EB4101405A04F55D71C0F30903AB618F
:1022F000AA88206800F028F92068018840F68F72CB
:10230000114001802046FEF7F2FF0EE1A0E055E00B
:10231000BDF800100904D2D5018840F68F72114033
:1023200001802068B0F850202B78062101EBC30112
:10233000114406EB4101405A83059B0DAB610BD064
:10234000AA8801E050E062E02969206800F0FCF80A
:10235000A96928690844286100212046FEF7F0FA9F
:102360002068B0F85010891D06EB41014218E96859
:102370003E290CD9C1F34F10C90601D1401E80B2CD
:102380004FF6FF7101EA802040F4004009E0C1F3FC
:102390004F00C90701D0401C80B24FF6FF7101EA1F
:1023A00080201080216808884BF68F72104080F4DE
:1023B000405048F2800210430880B6E02068B0F830
:1023C00050102B78062202EBC302114406EB4101A8
:1023D000415AC1F309015FEA010A24D0AA88534691
:1023E000296900F0B1F81EE0062101EBC00010449D
:1023F00006EB40003CF80000C0F309005FEA000A69
:1024000005D02A8903466046296900F09DF828789E
:10241000216831F8202048F68F731A4048F2C00333
:102420001A4321F82020A8695044A861286900EBCC
:102430000A022A616B6913B1E968514504D9297808
:102440002046FEF77DFA03E029782046FEF718FDC6
:10245000BDF80000000668D5C7EBC70004EB800597
:10246000206830F8271001EA0B0120F8271095F8B2
:10247000320028350028206812D0297830F8212031
:10248000B0F8503052061ED509EBC101194406EBD5
:102490004101405A83059B0DAB6124D0EA881EE0C0
:1024A000B0F850102A7809EBC202114406EB410142
:1024B000405A83059B0DAB6121D0AA882969206809
:1024C00000F058F81BE0062202EBC101194406EBAC
:1024D0004101405A83059B0DAB6104D02A892969CB
:1024E000206800F047F82978206830F8212048F665
:1024F0008F731A404CF280031A4320F82120206881
:10250000B0F850202B7809EBC301114406EB4101D0
:10251000405AC0F30900A86129690A182A6129787C
:102520006B69204663B1FEF743FD2068B0F84410A4
:10253000ADF8041009043FF55FAE0020BDE8FC9F34
:10254000FEF7F5F9F1E7000010B500EB42005C087A
:1025500000F5806009D000BF30F8042B01F8012B92
:10256000120A01F8012B641EF6D1DA0701D00078B7
:10257000087010BD10B55B1C00EB42005B0800F555
:10258000806009D011F8012B5B1E11F8014B42EA63
:10259000042220F8042BF5D110BD704770470000CD
:1025A000094910B5D0220A7008B1FE2000E0EE20E3
:1025B000487002220449054800F0D4F9BDE81040F3
:1025C0001E20FDF76BBF0000F803002078040020F8
:1025D000074810B5D02101707721417001460222D1
:1025E000044800F0BFF9BDE810403220FDF756BFA7
:1025F000F803002078040020074810B5B0210170CE
:102600000C21417001460222044800F0ABF9BDE8FC
:1026100010401E20FDF742BFF80300207804002080
:10262000FEF7D8B830B59FB028216846FDF7DFFD2A
:10263000142119A8FDF7DBFD3C210AA8FDF7D7FD01
:1026400001210804CDE90010002402940225049120
:10265000CDE90750000109906846FFF747F80F20C1
:10266000CDE919056802CDE91B40012119A81D9487
:10267000FEF768FF28040A90400118900AA8FEF7A8
:1026800055FE1FB030BD00001448016841F47001D0
:1026900001601348016841F0010101604168114A7D
:1026A000114041600168104A11400160016821F445
:1026B00080210160416821F4FE014160C16A21F07E
:1026C0000F01C162016B094A114001630021816061
:1026D0000249C003803908607047000088ED00E0BF
:1026E000001002400CC07FF8FFFFF6FECCFC00FF9C
:1026F00070B51048104C00250570207898B96078A6
:10270000401CC0B260700A2806D90C49012008702C
:102710000B48FFF73BFB04E008214FF09040FEF729
:102720004AF8207800B12570BDE870400448FFF7F2
:10273000C2BB000000000020EC00002005000020CB
:10274000980100202DE9F0430268234B234D244ECD
:10275000244C4FF08049984207D0484505D0A84204
:1027600003D0B04201D0A04203D122F070074A68E2
:102770003A431D4FDFF874C0DFF8748098420DD0E3
:1027800048450BD0A84209D0B04207D0A04205D09E
:10279000B84203D0604501D0404503D122F44075D2
:1027A000CA682A434D6922F080022A4302608A687F
:1027B000C2620A688262984207D0A04205D0B8423D
:1027C00003D0604501D0404501D109690163012171
:1027D0004161BDE8F0830000002C0140000400408E
:1027E0000008004000340140004001400044014026
:1027F0000048014010B5846842EA032224F47F4473
:102800000A432243826010BD826822F070020A43AC
:1028100042F007018160704710B5036A046A24F032
:1028200001040462846924F0F00444EA021423F0F1
:102830000A020A438461026210BD10B5036A23F0E4
:10284000100303628369046A23F4704343EA02328B
:1028500024F0A00343EA01118261016210BDD0F8A7
:102860001802002180F814120846704770B505461A
:10287000D0F81842D5F81C226178D26820789047A9
:1028800040F2022322460121284600F059FB002095
:1028900070BD10B50446812100F06BFA012120467D
:1028A00000F067FAD4F8180250B1D4F81C0204F50D
:1028B000067480688047206800F040FD002020609A
:1028C000002010BD10B5D0F81842D4F8101201291C
:1028D00009D1D0F81C0223786178C2681846904765
:1028E0000020C4F81002002010BD00002921018042
:1028F00000487047480100200A21018000487047C5
:102900008001002070B50646002540230322812166
:1029100000F00AFB402303220121304600F004FBB3
:102920004FF4067000F00CFDC6F8180280B10446A2
:10293000002084F81402D6F81C024068804740F258
:10294000022322460121304600F0FAFA284670BDE3
:102950000125FBE702460220002902D00020C2F830
:102960001C12704710B5134690F8FC41D0F818229D
:10297000032C09D192F8144234B9012482F814428C
:102980000A46812100F06AFB002010BD70B50022CC
:102990000D78D0F81832144615F0600529D0202D96
:1029A00050D14A78921E0A2A1FD2DFE802F012099B
:1029B0001E1E1E1E1E160D058878C3F8040241E077
:1029C000012203F5017133E04888000AC3F80802C8
:1029D00038E0012203F502712AE00122C3F8102237
:1029E0008A79194600F054F82CE000F046F80220ED
:1029F00070BD4D78062D04D00A2D1CD00B2D21D191
:102A00001DE04B882225B5EB132F07D1CA887B2AFE
:102A100000D97B22D0F81C120C6808E02125B5EB08
:102A2000132F04D1CA88084C092A00D9092221464B
:102A300000F048F806E0012203F50371F8E7887812
:102A4000C3F80C02002070BD7401002010B5D0F84E
:102A5000142252689047002010BD134610B50A4654
:102A6000002100F06DFA002010BD134610B50A4693
:102A7000002100F0F3FA002010BD10B504468021BB
:102A800000F0D1FA2046BDE81040002100F0CBBA9A
:102A900010B50323C0F80821C0F8F431C0F80C21A8
:102AA00013460A46002100F04BFA002010BD10B575
:102AB00005210023C0F8F4111A46194600F040FA27
:102AC000002010BD10B502238261C0F8F431C2614C
:102AD00013460A46002100F0C1FA002010BD10B5CF
:102AE00004210023C0F8F4111A46194600F0B6FA82
:102AF000002010BD10B50A46024903A000F0ECF812
:102B0000004810BD600C002045757265636120555A
:102B1000534220426F6F746C6F6164657220436F23
:102B20006E66696775726174696F6E001220088045
:102B3000004870473000002010B50A46024903A043
:102B400000F0CAF8004810BD600C002045757265A1
:102B500063612055534220426F6F746C6F616465EE
:102B60007220496E74657266616365000420088096
:102B7000004870472C00002010B50A46024903A007
:102B800000F0AAF8004810BD600C00204575726581
:102B90006361000010B50A46024903A000F09CF8EA
:102BA000004810BD600C00204575726563612055BA
:102BB000534220426F6F746C6F6164657200000055
:102BC00010B51A2008800A480168001D0468001D1D
:102BD0000068081809D008220649FFF733FA0549AA
:102BE000042210312046FFF72DFA0248801E10BD46
:102BF000ACF7FF1F46000020F8B5044648880D4694
:102C0000010A08294BD2DFE801F04A0409174A4AB1
:102C10004048D4F81012207C0A6832E0207C02265A
:102C20000028D4F8140205D0C16A684688470146D6
:102C3000467041E0816AF8E7C0B206282FD2DFE88B
:102C400000F003080D12171CD4F81012207C4A68FB
:102C500017E0D4F81012207C8A6812E0D4F8101221
:102C6000207CCA680DE0D4F81012207C0A6908E0C4
:102C7000D4F81012207C4A6903E0D4F81012207CAA
:102C80008A6969469047014616E0207C38B9D4F835
:102C90001402416B68468847F5E7207C20B129463D
:102CA0002046FFF7EAFEF8BDD4F81402016B68462F
:102CB0008847014607204870BDF800000028F2D080
:102CC000EA88002AEFD0824200D90246ADF80020FF
:102CD0002046FFF7F7FEF8BD70B5002300281DD091
:102CE0000446002502E06D1CEDB2641C2678002E1F
:102CF000F9D1022404EB45041480CC545B1C03225C
:102D0000CA5400245B1C06E0CA545B1CDAB28C5423
:102D1000521CD3B2401C0278002AF5D170BD0100CC
:102D20004FF0000004D0012901D0022901D0022077
:102D300070470120704710B580B1D0F8143213B13C
:102D40000023C0F8143209B1C0F81012012180F834
:102D5000FC11027000F0A0F8002010BD022010BD90
:102D600010B5D0F82002FDF7B6FEBDE81040FFF721
:102D7000D6BF10B5D0F82002FDF7ECFDBDE810403D
:102D8000FFF7CDBF2DE9F0411746044641B1D4F815
:102D9000140242698AB394F8FC01032842D043E04C
:102DA000D4F8F411002504F11400022933D1D0E93C
:102DB00002639E4207D9F31A83609AB239462046CD
:102DC000FFF753FE12E04068B0FBF3F103FB110183
:102DD000A1B9984212D3D4F8F81188420ED2002239
:102DE00011462046FFF741FEC4F8F85100231A4669
:102DF0001946204600F0A4F80DE012E0D4F81402C1
:102E0000C16829B194F8FC01032801D12046884704
:102E10002046FFF74CFE94F80002012804D184F804
:102E2000005201E0204690470020BDE8F08170B5D7
:102E30001546044641B1D4F8140282693AB394F8B5
:102E4000FC01032824D025E0D4F8F41104F58270A5
:102E500003291FD1D0E902218A420BD9531A83607A
:102E60000846834200D303469AB229462046FFF71C
:102E7000F4FD0FE0D4F81402016929B194F8FC01C3
:102E8000032801D1204688472046FFF728FE01E0AD
:102E900020469047002070BD10B519490446C1F87E
:102EA000A403C0F8201217480860082048600220D8
:102EB000886008610020886108620846FEF758F9BA
:102EC00008B1FDF733FA0022D4F820021823114686
:102ED00004F50874FDF70CFD5823002280212068BA
:102EE000FDF706FD9823002281212068FDF700FDF3
:102EF000D823002201212068FDF7FAFC002010BD34
:102F0000B8080020005C00400A0601F07F01D0F8FC
:102F10002002C1EBC10100EB810002D590F82A002C
:102F2000704790F8CE01704710B51C461346D0F894
:102F300020022246FDF727FEBDE81040FFF7EFBE56
:102F400010B5D0F82002FDF79BFFBDE81040FFF759
:102F5000E6BE70B50022044640231146FFF7E4FFA9
:102F600040252B46002280212046C4F81051FFF74F
:102F7000DBFF0120256284F8FC01D4F8180228B197
:102F8000D4F814022179426820469047002070BD91
:102F900090F8FD1180F8FC110020704710B590F8F2
:102FA000FC11032904D1D0F81412C96901B1884772
:102FB000002010BD01740020704710B5D0F8200229
:102FC000FEF77FF9BDE81040FFF7A9BE70B50446D3
:102FD00000F50270054600F04AF80120C4F8F4013B
:102FE000B4F80E02C4F8F80194F8080210F01F01BA
:102FF0000AD001290DD0022910D000F0800120460E
:1030000000F011F8002070BD2946204600F095F828
:10301000F8E72946204600F077F9F3E729462046ED
:1030200000F004F9EEE710B5D0F82002FDF77BFFC1
:10303000BDE81040FFF773BE10B5D0F82002FEF7D0
:103040005DF9BDE81040FFF76ABE90F8FC1180F80A
:10305000FD11042180F8FC110020704710B5D0F854
:103060002002FDF7A5FFBDE81040FFF758BE0A7823
:1030700002704A7842708A78CB7802EB0322428051
:103080000A794B7902EB032282808A79C97902EBB3
:103090000121C18070470246002011B1C2F814120C
:1030A00070470220704710B5D0F8142202241AB1DC
:1030B0001268904700B90024204610BD70B50E4636
:1030C0001A4D897804462970012928D894F8FC0102
:1030D000022802D0032822D105E099B103206160C3
:1030E00084F8FC0109E091B1606888420AD0C1B25D
:1030F0002046FFF7ABFC297861602046FFF7D3FF3D
:1031000002280CD02046BDE87040FFF7E8BC022042
:1031100084F8FC0120466160FFF798FCF2E7314635
:103120002046BDE87040FFF7A8BC00000C0100205D
:1031300010B5FFF781FF002010BD2DE9F0410026FA
:103140004B78012532460A2B43D2DFE803F03C5886
:103150004251420805422A27FFF74EFD63E004462C
:103160008888C8B9C888B8B9887800F07F0794F80B
:10317000FC01032810D084F8FE7139462046FFF781
:103180001CFF2046FFF7ABFC1FB1022084F8FC01B6
:1031900049E084F8FC5146E020461AE0FFF78EFF34
:1031A00041E0CB88012B14D190F8FC31022B02D0E6
:1031B000032B0ED104E08260012200F1080114E02B
:1031C0000122011D11E090F8FC21022A04D0032AFB
:1031D00002D0FFF752FC26E0C560D0F8041209B116
:1031E0000321C160022200F10C01FFF76BFC1AE021
:1031F00004464888012816D1C4F804520BE004465E
:1032000090F8FC01022801D00328C5D14888012884
:1032100009D1C4F80422D4F81402826820469047E9
:103220002046FFF75CFC3046BDE8F08170B50D46E6
:103230000446287800260979C0F34110012806D0F9
:103240006878A0B301281FD003283FD107E0D4F845
:1032500014022946826820469047002070BD94F8E9
:10326000FC01022817D003282CD1688828B921B185
:10327000802902D02046FFF7D6FED4F81402294652
:1032800082682046904713E094F8FC01022802D09F
:10329000032817D103E0C9B180291BD116E0688843
:1032A000A0B9480604D02046FFF75AFDE5E703E041
:1032B0002046FFF714FC09E094F8FC01022807D02F
:1032C00003280BD029462046FFF7D7FB304670BDB8
:1032D0004806FBD02046FFF7A6FEF7E7080601F0F8
:1032E0007F0004EB001501D5143501E005F582756A
:1032F0002046FFF709FE00B101202860022229467E
:103300002046FFF7DFFBE1E770B5054690F8FC01CA
:103310000C4603280DD1207901280AD8D5F81402CB
:10332000826828469047E08830B92846FFF7D7FBE7
:1033300002E02846FFF7A1FB002070BD70470000A7
:10334000004870479C0600200148FDF799BE000028
:10335000B8080020FEE702E008C8121F08C1002AD2
:10336000FAD170477047002001E001C1121F002A06
:10337000FBD17047FDF736FAFFF754F9FEF77EFEF2
:103380004FF480514448FCF7C8FF444CE07138B119
:10339000FEF7E8FEFEF7BAFE4148FEF7EBFC01E05F
:1033A000FCF76EFF4FF090480025E0792178084245
:1033B00014D03B48FEF7EAFC00220821464640466E
:1033C000FDF7FDF9FDF71AF9FFF702F90120A070EA
:1033D000024608213046FDF7F2F925706078C8B141
:1033E000002208214046FDF7EAF9FCF7A1FFA07989
:1033F000FFF7D6F86420FDF751F8A079FFF7D0F871
:103400006420FDF74BF8A079FFF7CAF86420FDF7B8
:1034100045F86570E078A8B3E16810290DD2204E18
:103420000020403606F1200300EB4112375C401CBF
:103430009F542028F8DB491CE160102921D100228B
:10344000082146464046FDF7BAF915486030FDF7B9
:103450000DF8207A401C20726420FDF71FF8FFF75A
:10346000CBF86420FDF71AF8FFF7C6F86420FDF7E3
:1034700015F8FFF7C1F8012208213046E560FDF795
:103480009EF9E5702079617908438ED0FDF76CF8DC
:10349000FCF7F6FE89E70000000400480000002069
:1034A0009801002002030405060708090A0B0C0D09
:1034B0000E0F10100102030405060708090A0B0C81
:1034C0000D0E0F10000000000000000001020304B8
:1034D00006070809F4340008000000208C010000F1
:1034E00028020008C83500088C010020F4100000F4
:1034F000663300080110132D2B1B086D041A790484
:103500001A95041AC10413F52A1B08390817040375
:10351000090412013202164056F001B026020102DF
:103520000301031A1A03120615FF0901A11685D01B
:10353000090119122912151326FFC80975089523C8
:10354000810685B0131A87130A100F26CA0113BE0D
:10355000809106850A131C96020214FACA2712C02B
:10356000226014209F021B089B041AA50419AB219A
:1035700012A082082910821053127A130529140808
:1035800093281B088D08411AC50C1A5F041A6D0494
:10359000C11AED1069041AF9041409022913010172
:1035A00025C0320904330203150921110114012237
:1035B0007B1607058103402D2007050107A91A3155
:0835C000130A0632022A408CB6
:040000050800018965
:00000001FF
